:100000000C9454010C944C020C9471010C947101E9
:100010000C9471010C9419030C9471010C947101EE
:100020000C9471010C9471010C9473010C94710186
:100030000C9471010C9471010C94D9010C94710110
:100040000C9471010C9471010C9479040C9471015D
:100050000C9471010C9471010C9471010C94710158
:100060000C9471010C947101050000000000050062
:10007000005F000005000700070005147F147F14CF
:1000800005242A7F2A12052313086462053649567F
:10009000205005080703000005001C224100050050
:1000A00041221C000514083E08140508083E0808F3
:1000B0000500B07000000508080808080500606029
:1000C0000000052010080402053E5149453E050088
:1000D000427F4000057249494946052141494D3357
:1000E000051814127F10052745454539053C4A4936
:1000F0004931054121110907053649494936054667
:100100004949291E05000014000005004034000084
:100110000508142241000514141414140541221476
:100120000800050201590906053E415D594E057C4E
:100130001211127C057F49494936053E4141412251
:10014000057F4141413E057F49494949057F0909EC
:100150000909053E41415173057F0808087F0500E4
:10016000417F4100052040413F01057F08142241A5
:10017000057F40404040057F020C027F057F040858
:10018000107F053E4141413E057F09090906053EB4
:100190004151215E057F0919294605264949493201
:1001A0000501017F0101053F4040403F051F204000
:1001B000201F053F4038403F0563140814630503C2
:1001C0000478040305615149454305007F4141001E
:1001D000050204081020050041417F0005040201CA
:1001E000020405404040404005070B000000052088
:1001F00054547840057F2844443805384444442802
:1002000005384444287F0538545454180500087EA6
:1002100009020518A4A49C78057F08040478050049
:10022000447D4000052040403D00057F10284400EB
:100230000500417F4000057C04780478057C0804B3
:10024000047805384444443805FC1824241805185B
:10025000242418FC057C080404080548545454243C
:100260000504043F4424053C4040207C051C2040FC
:10027000201C053C4030403C054428102844054CD7
:100280009090907C054464544C440500083641002D
:10029000050000770000050041360800050402044F
:1002A000080405007F417F0011241FBECFEFD8E076
:1002B000DEBFCDBF11E0A0E0B1E0EAE8F9E102C0A5
:1002C00005900D92AC33B107D9F725E0ACE3B1E06E
:1002D00001C01D92AF37B207E1F70E94D3040C941E
:1002E000C30C0C9400001F920F920FB60F921124B2
:1002F0000F931F932F933F934F935F936F937F932E
:100300008F939F93AF93BF93EF93FF93809181005F
:1003100086FF0FC08091860090918700A0E0B0E03A
:100320008093700190937101A0937201B093730157
:1003300027C06091860070918700CB01A0E0B0E0FB
:10034000009170011091710120917201309173013F
:10035000801B910BA20BB30BBC01CD01660F771F65
:10036000881F991F660F771F881F991F2AE330E0A7
:1003700040E050E00E944E0C3093750120937401D0
:10038000E1E8F0E0908180E489278083FF91EF919C
:10039000BF91AF919F918F917F916F915F914F919D
:1003A0003F912F911F910F910F900FBE0F901F90B3
:1003B00018951F920F920FB60F9211242F933F930F
:1003C0004F935F936F937F938F939F93AF93BF935D
:1003D00040916D0150916E014F5F5F4F50936E01E0
:1003E00040936D018091650190916601A091670134
:1003F000B09168010196A11DB11D80936501909394
:100400006601A0936701B09368019A01369527951C
:1004100036952795ABE7B4E10E94700C96958795C9
:1004200064E6689F9001699F300D112442175307BD
:1004300031F481E090E090934201809341019A0170
:100440003695279536952795A5ECB0E20E94700C5D
:10045000929582958F7089279F70892764EF71E04C
:10046000869F9001879F300D969F300D1124421773
:10047000530719F481E080936F01BF91AF919F9171
:100480008F917F916F915F914F913F912F910F903D
:100490000FBE0F901F9018951F920F920FB60F92DC
:1004A00011248F929F92AF92BF92CF92DF92EF92E0
:1004B000FF922F933F934F935F936F937F938F930D
:1004C0009F93AF93BF93EF93FF934F9B99C08091FE
:1004D0004F019091500101969093500180934F01EC
:1004E000C0906501D0906601E0906701F0906801CE
:1004F0008091610190916201A0916301B0916401CA
:10050000A7019601281B390B4A0B5B0B209359015D
:1005100030935A0140935B0150935C0160EC77E2A9
:1005200089E090E00E944E0C49015A0120935D0140
:1005300030935E0140935F0150936001C09261016E
:10054000D0926201E0926301F09264016091000137
:100550007091010180E090E00E94430B23E230E1C2
:1005600049E450E40E94D10B6B017C01C501B40148
:100570000E94430BA70196010E94D10B20E030E0BE
:1005800040EC50E40E94D10B20E030E44CE156E412
:100590000E94A20A0E94140B6093690170936A0181
:1005A00080936B0190936C016091510170915201A5
:1005B00080915301909154010E94430BA701960131
:1005C0000E94360A0E94140B6093510170935201ED
:1005D000809353019093540120EA36E841E050E0C3
:1005E0000E944E0CBA01A901409355015093560147
:1005F000609357017093580180E090E00E94A60C30
:10060000FF91EF91BF91AF919F918F917F916F91EA
:100610005F914F913F912F91FF90EF90DF90CF909E
:10062000BF90AF909F908F900F900FBE0F901F9034
:1006300018951F920F920FB60F9211242F933F938C
:100640004F935F936F937F938F939F93AF93BF93DA
:10065000EF93FF934C990EC06091000170910101DE
:100660006F5F7F4F709301016093000184E090E021
:100670000E94980C4D990EC060910001709101018B
:1006800061507109709301016093000184E090E072
:100690000E94980CFF91EF91BF91AF919F918F9124
:1006A0007F916F915F914F913F912F910F900FBE6E
:1006B0000F901F9018954F925F926F927F928F923A
:1006C0009F92AF92BF92CF92DF92EF92FF920F93E1
:1006D0001F93CF93DF93E901FC013081332309F4A9
:1006E000E5C05A016B014C0180913E018130C9F097
:1006F00030F0823069F1833009F487C0D0C080E4E3
:1007000080937C00809178009091790096958795F0
:100710009695879590934401809343018093B4000C
:10072000BEC081E480937C00609178007091790074
:1007300080E090E00E94430B2DE032E348EC5DE363
:100740000E94D10B0E94140BF50171836083A7C036
:1007500082E480937C0008E710E0F80160817181F9
:1007600080E090E00E94430B2AE038E240EA5BE33D
:100770000E94D10B20E030E04AE754E40E94D10B04
:100780002B013C01F8016081718180E090E00E94C2
:10079000430B2AE038E240EA5BE30E94D10B9B0165
:1007A000AC0160E070E080EA90E40E94350A9B01B1
:1007B000AC01C301B2010E94A20A26E636E646E277
:1007C00050E40E94D10B20E030E042E853E40E9464
:1007D000350A0E94140BF6017183608320913D015C
:1007E000211106C0798368832F5F20933D0107C0E4
:1007F000288139812617370710F479836883688147
:1008000086E090E00E94980C4AC083E480937C00CC
:10081000609178007091790080E090E00E94430B35
:100820002AE038E240EA5BE30E94D10B21E73DE396
:100830004AE250E40E94350A26EF38E24CE55FE3D5
:100840000E94A20A20E030E04AE754E40E94D10B63
:1008500020E030E040E251E40E94A20A0E94140B22
:10086000F801718360832FEF20933E0120913C01BA
:10087000211107C0F701718360832F5F20933C0132
:1008800008C0F701208131812617370710F47183E2
:100890006083F701608185E090E00E94980C809170
:1008A0003E018F5F80933E01F4011082DF91CF9172
:1008B0001F910F91FF90EF90DF90CF90BF90AF907E
:1008C0009F908F907F906F905F904F90089590933E
:1008D000C5008093C40088E98093C1008EE08093B6
:1008E000C20008959091C00095FFFCCF8093C60090
:1008F00008951F920F920FB60F9211242F933F93DA
:100900004F935F936F937F938F939F93AF93BF9317
:10091000CF93EF93FF93C091C600C43621F480912A
:1009200049010E947204CC3621F410924A011092BF
:100930004901C63621F4809145010E947204C336F4
:1009400021F41092460110924501FF91EF91CF9151
:10095000BF91AF919F918F917F916F915F914F91D7
:100960003F912F910F900FBE0F901F901895FC0193
:10097000808191818C329140A8F4FB01808191812A
:10098000A281B3814597A105B10560F089E180930B
:10099000B400FA01808191814F9718F08FEF88B9E8
:1009A000089518B8089587E690E00E9467048EEFD6
:1009B00084B98AB1837C8AB98CE38BB9E9E6F0E02B
:1009C00082E0808391E09DBB24E02093680090E367
:1009D00090936D0090819260908384BD85BD97EC6B
:1009E00097BD80936E0087EE80937A0010927B0013
:1009F00083E28093B0002093B1008FEF8093B40026
:100A00001092800083E48093810080E280936F00E5
:100A1000789480E090E00E94920C6B017C016093DE
:100A2000550170935601809357019093580184E0CB
:100A300090E00E948A0C90E0909301018093000165
:100A400085E090E00E948A0C90E0909346018093AC
:100A5000450186E090E00E948A0C90E090934A0164
:100A600080934901A701960160EA76E881E090E071
:100A70000E943E0C60935101709352018093530188
:100A8000909354010E94FA0720E048E065E088E670
:100A900090E00E9483080E9473080F2EF5E4EF2E69
:100AA000F1E0FF2EF02D07E411E029E431E04DE400
:100AB00051E06BE471E081E491E00E945B03A801E6
:100AC00069E671E084E791E00E94B7040E946F0834
:100AD00060E080E00E94F10782E091E00E94B309AB
:100AE0006FE080E00E94F10760915D0170915E010E
:100AF00080915F01909160010E94CA096FE08EE1D0
:100B00000E94F1078BE091E00E94B30969E180E067
:100B10000E94F1078FE091E00E94B30969E181E44E
:100B20000E94F107609174017091750180E090E07E
:100B30000E94CA0963E280E00E94F1078CE191E023
:100B40000E94B30963E280E50E94F1076091000111
:100B50007091010180E090E00E94CA0962E384E1A3
:100B60000E94F107609155017091560180915701E3
:100B7000909158010E94CA0962E382E30E94F10742
:100B80008BE291E00E94B30962E380E50E94F107E5
:100B9000609147017091480180E090E00E94CA098D
:100BA00062E384E60E94F1078EE291E00E94B309BD
:100BB00065E084E60E94F10760914D0170914E015D
:100BC00080E090E00E94CA0965E088E70E94F10792
:100BD00081E391E00E94B30964E184E60E94F10799
:100BE00060914B0170914C0180E090E00E94CA0935
:100BF00064E188E70E94F10783E391E00E94B30972
:100C00000E94C3074F9908C06DE288E70E94F10770
:100C100085E391E00E94B3094F9B14C04E9908C030
:100C20006DE288E70E94F10787E391E00E94B30933
:100C30004E9B08C06DE288E70E94F10789E391E0CE
:100C40000E94B3090E94C30780913F019091400127
:100C50008130910509F18230910509F442C0892B58
:100C600009F066C085B1817085B985B1806C85B9A0
:100C7000C5B16091690170916A0180916B01909199
:100C80006C012AE030E040E050E00E944E0C6F70B2
:100C9000660F6C2B65B94CC085B1817085B985B183
:100CA000806A85B9C5B16091690170916A018091CE
:100CB0006B0190916C010F2EFAE0CF2ED12CE12C1C
:100CC000F12CF02DA70196010E944E0CCA01B9012A
:100CD000A70196010E944E0C6F70660F6C2B65B9D0
:100CE00027C085B1817085B985B1806685B9C5B1E8
:100CF0006091690170916A0180916B0190916C0122
:100D000024E630E040E050E00E944E0CCA01B901F8
:100D10002AE030E040E050E00E944E0C6F70660F19
:100D20006C2B65B98FEF9FEF9093400180933F014B
:100D300080913F01909140010196909340018093F2
:100D40003F01ABCE669566956695E82FF0E080E8AA
:100D5000689FE00DF11D1124E158FE4F4083089576
:100D6000669566956695E82FF0E080E8689FE00D4F
:100D7000F11D1124E158FE4F80810895CF93DF9338
:100D8000DC01CB01FA0120E322872187208727831A
:100D90002683258324832383228321832083BB23EB
:100DA0004CF4B095A095909581959F4FAF4FBF4F54
:100DB00031E008C030E006C09A5CAA49BB432181FB
:100DC0002F5F218381152AEC92072AE9A2072BE3E2
:100DD000B20794F706C0915EA54FB54022812F5F00
:100DE0002283811521EE920725EFA20725E0B207A5
:100DF00094F707C080589649A849B10923812F5F0D
:100E00002383803826E9920728E9A207B10594F7E1
:100E100007C080549244AF40B10924812F5F2483DE
:100E2000803422E492072FE0A207B10594F707C0AF
:100E3000805A9648A140B10925812F5F2583803AC9
:100E400026E8920721E0A207B10594F707C0805178
:100E50009742A109B10926812F5F2683803127E2BD
:100E60009207A105B1059CF707C0885E9340A109D0
:100E7000B10927812F5F2783883E23E09207A105D0
:100E8000B1059CF707C084569109A109B1092085D5
:100E90002F5F208784369105A105B105A4F706C010
:100EA0000A97A109B10921852F5F21878A30910511
:100EB000A105B105ACF706C00197A109B1092285CA
:100EC0002F5F2287181619061A061B06ACF320E0BE
:100ED00001C02F5FDF01A20FB11D8C918033C9F3D8
:100EE000332331F02150DF01A20FB11D8DE28C932D
:100EF0004AE0421B30E00DC0832F90E0EF01C80FA5
:100F0000D91F820F911DDF01A80FB91F8C91888313
:100F10003F5F431788F7E30FF11D1082DF91CF91F8
:100F200008950F931F93CF93DF93C82F8B01D42F76
:100F30000E94170A88E70E94290A8C2F0E94290A1A
:100F4000C0E007C0F801EC0FF11D80810E94290A62
:100F5000CF5FCD17B8F30E94210ADF91CF911F9187
:100F60000F910895CF93DF931F92CDB7DEB789839A
:100F700041E0BE016F5F7F4F80E00E9491070F90BC
:100F8000DF91CF910895CF9381E20E94B20780E074
:100F90000E94B2078FE70E94B20782E20E94B20766
:100FA00080E00E94B20787E00E94B207C0E00BC059
:100FB00080E1C89FB001112461587E4F40E180E478
:100FC0000E949107CF5FC03498F3CF910895882392
:100FD00014F0809376010895803410F480937701A3
:100FE0000895CF93C62F0E94E7078C2F0E94EC072D
:100FF000CF9108950E94FE098EEA0E94B20785ED06
:101000000E94B20780EF0E94B20788EA0E94B207EE
:101010008FE30E94B20783ED0E94B20780E00E9436
:10102000B2078DE80E94B20784E10E94B20780E413
:101030000E94B20780E20E94B20780E00E94B207DD
:1010400081EA0E94B20788EC0E94B2078AED0E94F2
:10105000B20782E10E94B20781E80E94B2078FEFD7
:101060000E94B20789ED0E94B20781EF0E94B20789
:101070008BED0E94B20780E20E94B20784EA0E94D0
:10108000B20786EA0E94B2078EE20E94B2078FEA98
:101090000E94B20760E080E00E94F107E6E7F1E01D
:1010A00086EA828317821682158211821082089541
:1010B0001F93CF93DF93182FD0E00BC0412F6D2FDC
:1010C0008C2F0E94A206CF5F01C0C0E0CC23B4F7F2
:1010D000D85FD034D0F3DF91CF911F91089580E095
:1010E0000E945808089580917801873A21F486EA91
:1010F0008093780103C087EA80937801809178011A
:101100000E94B20708956623E4F04034D0F4223000
:10111000C0F4E6E7F1E0948383836583468350E07F
:1011200041505109CA0199230CF40796959587956A
:101130009595879595958795E6E7F1E08F5F87838D
:10114000208708954F925F926F927F928F929F9225
:10115000AF92BF92CF92DF92EF92FF920F931F93C5
:10116000CF93DF93A6E7B1E05C9011964C90119776
:10117000805215969C91159717962C911797929FD0
:10118000900111242F5F3F4F829FA001839F500D3C
:1011900011241396ED91FC9114975A018FEFA81A20
:1011A000B80AE40FF51F7490842D8770982E642C74
:1011B000812C5FC0662D852D0E94F1077501E80C1A
:1011C000F11C670181E0C81AD10810E041C080918C
:1011D000790190917A01FC01EE0DFF1D2491492DBA
:1011E00050E030E0092C02C0220F331F0A94E2F7CE
:1011F000022F8820A1F0FC01EC0DFD1DE49188E098
:1012000090E0841B950BF0E002C0F595E7958A9578
:10121000E2F70E2F022B80917D01C80ED11C809128
:101220007E01813039F4E6E7F1E0618180810E943E
:10123000B006082BC6E7D1E06981888191E0980F5C
:101240009883402F0E94A2068F81E80EF11C1F5F39
:10125000171508F4BCCF80917E01811107C0E6E725
:10126000F1E040E0618180810E94A20688E0680E82
:10127000839480917D01881608F49CCF242D2695B7
:101280002695269530E080917C0190E0840D911D9B
:101290000197AC0112F4495F5F4F559547955595FD
:1012A0004795559547952417350709F445C08FE3B1
:1012B000861508F441C0662D852D0E94F107A80C03
:1012C000B11C81E0A81AB10800E029C0C6E7D1E04E
:1012D000F98018816F2D812F0E94B006EB81FC816F
:1012E000EA0DFB1D449128E030E02919310950E056
:1012F00002C0559547952A95E2F7482B988591307D
:1013000009F4482BC6E7D1E081E0810F88836F2D77
:10131000812F0E94A2068F81A80EB11C0F5F0715B6
:10132000A8F280917E01811107C0E6E7F1E040E07C
:10133000618180810E94A206852D870D642D8F5FBB
:101340000E94F107DF91CF911F910F91FF90EF90D5
:10135000DF90CF90BF90AF909F908F907F906F90D5
:101360005F904F900895CF93DF93EC010DC0E6E7B7
:10137000F1E09081258130E0290F311D20383105C1
:1013800034F421960E94A20888818111F0CFDF9168
:10139000CF9108950F931F93CF93DF93CDB7DEB70F
:1013A0002C970FB6F894DEBF0FBECDBF6115710547
:1013B0008105910521F480E30E94A20814C0611503
:1013C0007105810520E8920771F08E010F5F1F4FB4
:1013D0002CE0F80111922A95E9F7A8010E94BE06B7
:1013E000C8010E94B3092C960FB6F894DEBF0FBE59
:1013F000CDBFDF91CF911F910F91089587B180618B
:1014000087B987B1806287B988B1806188B988B1AE
:10141000806288B91092B90088E48093B80084E0B3
:101420008093BC0008958091B900887F089584EA74
:101430008093BC008091BC008823E4F70E94130ACB
:10144000089585ED8093BC008091BC0084FDFCCFA5
:1014500008958093BB0084E88093BC008091BC0019
:101460008823E4F70E94130A08955058BB27AA273F
:101470000E944D0A0C94970B0E94890B38F00E9431
:10148000900B20F039F49F3F19F426F40C94860B4E
:101490000EF4E095E7FB0C94800BE92F0E94A80B5B
:1014A00058F3BA17620773078407950720F079F499
:1014B000A6F50C94CA0B0EF4E0950B2EBA2FA02DB6
:1014C0000B01B90190010C01CA01A0011124FF27F1
:1014D000591B99F0593F50F4503E68F11A16F040EC
:1014E000A22F232F342F4427585FF3CF46953795EB
:1014F0002795A795F0405395C9F77EF41F16BA0BB0
:10150000620B730B840BBAF09150A1F0FF0FBB1F5D
:10151000661F771F881FC2F70EC0BA0F621F731FA6
:10152000841F48F4879577956795B795F7959E3F03
:1015300008F0B0CF9395880F08F09927EE0F979594
:10154000879508950E94B60A0C94970B0E94900B01
:1015500058F00E94890B40F029F45F3F29F00C9469
:10156000800B51110C94CB0B0C94860B0E94A80B92
:1015700068F39923B1F3552391F3951B550BBB27C2
:10158000AA2762177307840738F09F5F5F4F220F07
:10159000331F441FAA1FA9F335D00E2E3AF0E0E8FE
:1015A00032D091505040E695001CCAF72BD0FE2F48
:1015B00029D0660F771F881FBB1F261737074807DC
:1015C000AB07B0E809F0BB0B802DBF01FF27935894
:1015D0005F4F3AF09E3F510578F00C94800B0C94CD
:1015E000CB0B5F3FE4F3983ED4F3869577956795F0
:1015F000B795F7959F5FC9F7880F911D96958795C9
:1016000097F90895E1E0660F771F881FBB1F6217E7
:1016100073078407BA0720F0621B730B840BBA0BA5
:10162000EE1F88F7E09508950E94B00B88F09F5751
:1016300098F0B92F9927B751B0F0E1F0660F771FF6
:10164000881F991F1AF0BA95C9F714C0B13091F0EC
:101650000E94CA0BB1E008950C94CA0B672F782F33
:101660008827B85F39F0B93FCCF3869577956795B1
:10167000B395D9F73EF490958095709561957F4F1D
:101680008F4F9F4F0895E89409C097FB3EF49095C3
:101690008095709561957F4F8F4F9F4F9923A9F04B
:1016A000F92F96E9BB279395F695879577956795DA
:1016B000B795F111F8CFFAF4BB0F11F460FF1BC01E
:1016C0006F5F7F4F8F4F9F4F16C0882311F096E9B1
:1016D00011C0772321F09EE8872F762F05C066235F
:1016E00071F096E8862F70E060E02AF09A95660F18
:1016F000771F881FDAF7880F9695879597F90895D1
:1017000097F99F6780E870E060E008959FEF80ECB4
:10171000089500240A941616170618060906089557
:1017200000240A9412161306140605060895092EBD
:101730000394000C11F4882352F0BB0F40F4BF2B2C
:1017400011F460FF04C06F5F7F4F8F4F9F4F08956C
:1017500057FD9058440F551F59F05F3F71F0479562
:10176000880F97FB991F61F09F3F79F08795089547
:10177000121613061406551FF2CF4695F1DF08C066
:10178000161617061806991FF1CF86957105610583
:1017900008940895E894BB2766277727CB0197F92B
:1017A00008950E94E40B0C94970B0E94890B38F06B
:1017B0000E94900B20F0952311F00C94800B0C9458
:1017C000860B11240C94CB0B0E94A80B70F3959FF1
:1017D000C1F3950F50E0551F629FF001729FBB2728
:1017E000F00DB11D639FAA27F00DB11DAA1F649FC4
:1017F0006627B00DA11D661F829F2227B00DA11D77
:10180000621F739FB00DA11D621F839FA00D611DFC
:10181000221F749F3327A00D611D231F849F600D1D
:10182000211D822F762F6A2F11249F5750409AF046
:10183000F1F088234AF0EE0FFF1FBB1F661F771FD2
:10184000881F91505040A9F79E3F510580F00C949D
:10185000800B0C94CB0B5F3FE4F3983ED4F386955A
:1018600077956795B795F795E7959F5FC1F7FE2B3D
:10187000880F911D9695879597F90895DB018F93B1
:101880009F930E947F0CBF91AF91A29F800D911DED
:10189000A39F900DB29F900D11240895A1E21A2EDE
:1018A000AA1BBB1BFD010DC0AA1FBB1FEE1FFF1F04
:1018B000A217B307E407F50720F0A21BB30BE40B54
:1018C000F50B661F771F881F991F1A9469F760959B
:1018D0007095809590959B01AC01BD01CF01089555
:1018E000A29FB001B39FC001A39F700D811D112461
:1018F000911DB29F700D811D1124911D08950E94AC
:10190000700CA59F900DB49F900DA49F800D911D0C
:1019100011240895F999FECF92BD81BDF89A9927B7
:1019200080B50895A6E1B0E044E050E00C94B50C19
:10193000262FF999FECF1FBA92BD81BD20BD0FB6EB
:10194000F894FA9AF99A0FBE01960895242F0E94EE
:10195000990C252F0E94990C0C94AE0C0E94980CA7
:10196000272F0C94990CDC01CB01FC01F999FECFD7
:1019700006C0F2BDE1BDF89A319600B40D92415017
:0A1980005040B8F70895F894FFCF27
:10198A0041004C415344204361720072706D005310
:10199A006F6E61722028636D293A2000442E205010
:1019AA006E65752028636D293A20006B6D006B4EB9
:0C19BA00002500430050004400520000D3
:00000001FF
