S0110000737072696E742031302E73726563F2
S11300000C9454010C9451020C9471010C947101E0
S11300100C9471010C941E030C9471010C947101E5
S11300200C9471010C9471010C9473010C94710182
S11300300C9471010C9471010C94D9010C9471010C
S11300400C9471010C9471010C945F040C94710173
S11300500C9471010C9471010C9471010C94710154
S11300600C9471010C94710105000000000005005E
S1130070005F000005000700070005147F147F14CB
S113008005242A7F2A12052313086462053649567B
S1130090205005080703000005001C22410005004C
S11300A041221C000514083E08140508083E0808EF
S11300B00500B07000000508080808080500606025
S11300C00000052010080402053E5149453E050084
S11300D0427F4000057249494946052141494D3353
S11300E0051814127F10052745454539053C4A4932
S11300F04931054121110907053649494936054663
S11301004949291E05000014000005004034000080
S11301100508142241000514141414140541221472
S11301200800050201590906053E415D594E057C4A
S11301301211127C057F49494936053E414141224D
S1130140057F4141413E057F49494949057F0909E8
S11301500909053E41415173057F0808087F0500E0
S1130160417F4100052040413F01057F08142241A1
S1130170057F40404040057F020C027F057F040854
S1130180107F053E4141413E057F09090906053EB0
S11301904151215E057F09192946052649494932FD
S11301A00501017F0101053F4040403F051F2040FC
S11301B0201F053F4038403F0563140814630503BE
S11301C00478040305615149454305007F4141001A
S11301D0050204081020050041417F0005040201C6
S11301E0020405404040404005070B000000052084
S11301F054547840057F28444438053844444428FE
S113020005384444287F0538545454180500087EA2
S113021009020518A4A49C78057F08040478050045
S1130220447D4000052040403D00057F10284400E7
S11302300500417F4000057C04780478057C0804AF
S1130240047805384444443805FC18242418051857
S1130250242418FC057C0804040805485454542438
S11302600504043F4424053C4040207C051C2040F8
S1130270201C053C4030403C054428102844054CD3
S11302809090907C054464544C4405000836410029
S1130290050000770000050041360800050402044B
S11302A0080405007F417F0011241FBECFEFD8E072
S11302B0DEBFCDBF11E0A0E0B1E0E0E2F9E102C0B1
S11302C005900D92AC33B107D9F725E0ACE3B1E06A
S11302D001C01D92AC37B207E1F70E94AD040C9443
S11302E08E0C0C9400001F920F920FB60F921124E3
S11302F00F931F932F933F934F935F936F937F932A
S11303008F939F93AF93BF93EF93FF93809181005B
S113031086FF0FC08091860090918700A0E0B0E036
S113032080936D0190936E01A0936F01B09370015F
S113033027C06091860070918700CB01A0E0B0E0F7
S113034000916D0110916E0120916F013091700147
S1130350801B910BA20BB30BBC01CD01660F771F61
S1130360881F991F660F771F881F991F2AE330E0A3
S113037040E050E00E94190C309372012093710107
S1130380E1E8F0E0908180E489278083FF91EF9198
S1130390BF91AF919F918F917F916F915F914F9199
S11303A03F912F911F910F910F900FBE0F901F90AF
S11303B018951F920F920FB60F9211242F933F930B
S11303C04F935F936F937F938F939F93AF93BF9359
S11303D040916A0150916B014F5F5F4F50936B01E5
S11303E040936A018091620190916301A09164013C
S11303F0B09165010196A11DB11D80936201909396
S11304006301A0936401B09365019A013695279521
S1130410A5E7BAED0E943B0C0024880F991F001C2D
S1130420880F991F001C892F902D66E9689F900101
S1130430699F300D11244217530731F481E090E095
S113044090934101809340019A0136952795369502
S11304502795A5ECB0E20E943B0C929582958F7093
S113046089279F70892764EF71E0869F9001879F99
S1130470300D969F300D11244217530719F481E073
S113048080936C01BF91AF919F918F917F916F91F8
S11304905F914F913F912F910F900FBE0F901F903E
S11304A018951F920F920FB60F9211248F929F925C
S11304B0AF92BF92CF92DF92EF92FF922F933F932E
S11304C04F935F936F937F938F939F93AF93BF9358
S11304D0EF93FF934F9B99C080914C0190914D01F4
S11304E0019690934D0180934C01C0906201D0908D
S11304F06301E0906401F090650180915E01909148
S11305005F01A0916001B0916101A7019601281BD0
S1130510390B4A0B5B0B20935601309357014093E0
S113052058015093590160EC77E289E090E00E9411
S1130530190C49015A0120935A0130935B014093ED
S11305405C0150935D01C0925E01D0925F01E09224
S11305506001F0926101609100017091010180E0FD
S113056090E00E940E0B23E230E149E450E40E9443
S11305709C0B6B017C01C501B4010E940E0BA70109
S113058096010E949C0B20E030E040EC50E40E9475
S11305909C0B20E030E44CE156E40E946D0A0E947A
S11305A0DF0A6093660170936701809368019093FA
S11305B0690160914E0170914F01809150019091B9
S11305C051010E940E0BA70196010E94010A0E948C
S11305D0DF0A60934E0170934F0180935001909312
S11305E0510120EA36E841E050E00E94190CBA01BA
S11305F0A9014093520150935301609354017093A5
S1130600550180E090E00E94710CFF91EF91BF9141
S1130610AF919F918F917F916F915F914F913F9196
S11306202F91FF90EF90DF90CF90BF90AF909F906D
S11306308F900F900FBE0F901F9018951F920F92DE
S11306400FB60F9211242F933F934F935F936F93A1
S11306507F938F939F93AF93BF93EF93FF934C99A3
S11306600EC060910001709101016F5F7F4F709324
S113067001016093000184E090E00E94630C4D99B5
S11306800EC0609100017091010161507109709375
S113069001016093000184E090E00E94630CFF91EB
S11306A0EF91BF91AF919F918F917F916F915F91E6
S11306B04F913F912F910F900FBE0F901F9018955F
S11306C08F929F92AF92BF92CF92DF92EF92FF925E
S11306D00F931F93CF93DF937901FC013081332370
S11306E009F4CEC05A016B01EC0180913D018130C7
S11306F0C9F030F0823069F1833009F48AC0BAC09D
S113070080E480937C0080917800909179009695A4
S113071087959695879590934301809342018093A2
S1130720B400A8C081E480937C006091780070914B
S1130730790080E090E00E940E0B2DE032E348EC5B
S11307405DE30E949C0B0E94DF0AF50171836083C4
S113075091C082E480937C0008E710E0F801608196
S1130760718180E090E00E940E0B2AE038E240EABA
S11307705BE30E949C0B20E030E04AE754E40E94D3
S11307809C0B4B015C01F8016081718180E090E079
S11307900E940E0B2AE038E240EA5BE30E949C0BC5
S11307A09B01AC0160E070E080EA90E40E94000AE2
S11307B09B01AC01C501B4010E946D0A26E636E630
S11307C046E250E40E949C0B20E030E042E853E40F
S11307D00E94000A0E94DF0AF6017183608320915F
S11307E03C01211107C0F701718360832F5F2093BF
S11307F03C0108C0F701208131812617370710F426
S113080071836083F701608186E090E00E94630C4D
S113081031C083E480937C0060917800709179000A
S113082080E090E00E940E0B2AE038E240EA5BE3AD
S11308300E949C0B21E73DE34AE250E40E94000A37
S113084026EF38E24CE55FE30E946D0A20E030E0D9
S11308504AE754E40E949C0B20E030E040E251E47B
S11308600E946D0A0E94DF0AF801718360838FEF92
S113087080933D0180913D018F5F80933D011882FB
S1130880DF91CF911F910F91FF90EF90DF90CF9068
S1130890BF90AF909F908F9008959093C5008093E0
S11308A0C40088E98093C1008EE08093C20008955B
S11308B09091C00095FFFCCF8093C60008951F92CD
S11308C00F920FB60F9211242F933F934F935F9380
S11308D06F937F938F939F93AF93BF93CF93EF9334
S11308E0FF93C091C600C43621F4809146010E9452
S11308F05804CC3621F41092470110924601FF911E
S1130900EF91CF91BF91AF919F918F917F916F9113
S11309105F914F913F912F910F900FBE0F901F90B9
S11309201895FC01808191818C329140A8F4FB01DF
S113093080819181A281B3814597A105B10560F0C1
S113094089E18093B400FA01808191814F9718F076
S11309508FEF88B9089518B8089587E690E00E944B
S11309604D048EEF84B98AB1837C8AB98CE38BB948
S1130970E9E6F0E082E0808391E09DBB24E02093EF
S1130980680090E390936D0090819260908384BDA1
S113099085BD97EC97BD80936E0087EE80937A00B7
S11309A010927B0083E28093B0002093B1008FEF1C
S11309B08093B4001092800083E48093810080E2ED
S11309C080936F00789480E090E00E945D0C6B014E
S11309D07C0160935201709353018093540190936E
S11309E0550184E090E00E94550C90E09093010141
S11309F08093000186E090E00E94550C90E0909373
S1130A00470180934601A701960160EA76E881E0F8
S1130A1090E00E94090C60934E0170934F01809303
S1130A205001909351010E94C50720E048E065E021
S1130A3088E690E00E944E080E943E0804E411E01B
S1130A4026E431E04AE451E068E471E080E491E0B6
S1130A500E946003A80166E671E081E791E00E94CC
S1130A6091040E943A0860E080E00E94BC0782E0A2
S1130A7091E00E947E096FE080E00E94BC076091D3
S1130A805A0170915B0180915C0190915D010E941B
S1130A9095096FE08EE10E94BC078BE091E00E9413
S1130AA07E0969E180E00E94BC078FE091E00E942A
S1130AB07E0969E181E40E94BC0760917101709133
S1130AC0720180E090E00E94950963E280E00E9458
S1130AD0BC078CE191E00E947E0963E280E50E94FC
S1130AE0BC07609100017091010180E090E00E94D8
S1130AF0950962E384E10E94BC0760915201709100
S1130B00530180915401909155010E94950962E32B
S1130B1082E30E94BC078BE291E00E947E0962E3BB
S1130B2080E50E94BC07609144017091450180E01A
S1130B3090E00E94950962E384E60E94BC078EE27D
S1130B4091E00E947E0965E084E60E94BC07609102
S1130B504A0170914B0180E090E00E94950965E0A4
S1130B6088E70E94BC0781E391E00E947E0964E16A
S1130B7084E60E94BC07609148017091490180E0BD
S1130B8090E00E94950964E188E70E94BC0783E332
S1130B9091E00E947E090E948E074F9908C06DE281
S1130BA088E70E94BC0785E391E00E947E094F9B81
S1130BB014C04E9908C06DE288E70E94BC0787E321
S1130BC091E00E947E094E9B08C06DE288E70E9476
S1130BD0BC0789E391E00E947E090E948E07809100
S1130BE03E0190913F018130910509F182309105D8
S1130BF009F442C0892B09F066C085B1817085B9BA
S1130C0085B1806C85B9C5B1609166017091670149
S1130C1080916801909169012AE030E040E050E061
S1130C200E94190C6F70660F6C2B65B94CC085B1AE
S1130C30817085B985B1806A85B9C5B16091660155
S1130C407091670180916801909169010F2EFAE01B
S1130C50CF2ED12CE12CF12CF02DA70196010E946E
S1130C60190CCA01B901A70196010E94190C6F70F1
S1130C70660F6C2B65B927C085B1817085B985B1C4
S1130C80806685B9C5B160916601709167018091F4
S1130C9068019091690124E630E040E050E00E9450
S1130CA0190CCA01B9012AE030E040E050E00E948A
S1130CB0190C6F70660F6C2B65B98FEF9FEF9093D3
S1130CC03F0180933E0180913E0190913F01019646
S1130CD090933F0180933E01B1CE669566956695EB
S1130CE0E82FF0E080E8689FE00DF11D1124E4583E
S1130CF0FE4F40830895669566956695E82FF0E06B
S1130D0080E8689FE00DF11D1124E458FE4F8081B6
S1130D100895CF93DF93DC01CB01FA0120E322870E
S1130D202187208727832683258324832383228383
S1130D3021832083BB234CF4B095A0959095819595
S1130D409F4FAF4FBF4F31E008C030E006C09A5C00
S1130D50AA49BB4321812F5F218381152AEC920785
S1130D602AE9A2072BE3B20794F706C0915EA54FC8
S1130D70B54022812F5F2283811521EE920725EF52
S1130D80A20725E0B20794F707C080589649A849FE
S1130D90B10923812F5F2383803826E9920728E94C
S1130DA0A207B10594F707C080549244AF40B1093B
S1130DB024812F5F2483803422E492072FE0A2074A
S1130DC0B10594F707C0805A9648A140B10925811E
S1130DD02F5F2583803A26E8920721E0A207B10518
S1130DE094F707C080519742A109B10926812F5F6A
S1130DF02683803127E29207A105B1059CF707C03D
S1130E00885E9340A109B10927812F5F2783883E1B
S1130E1023E09207A105B1059CF707C08456910908
S1130E20A109B10920852F5F208784369105A1058A
S1130E30B105A4F706C00A97A109B10921852F5F5E
S1130E4021878A309105A105B105ACF706C0019749
S1130E50A109B10922852F5F2287181619061A06DF
S1130E601B06ACF320E001C02F5FDF01A20FB11D10
S1130E708C918033C9F3332331F02150DF01A20F69
S1130E80B11D8DE28C934AE0421B30E00DC0832FEC
S1130E9090E0EF01C80FD91F820F911DDF01A80F49
S1130EA0B91F8C9188833F5F431788F7E30FF11DC7
S1130EB01082DF91CF9108950F931F93CF93DF9307
S1130EC0C82F8B01D42F0E94E20988E70E94F409FD
S1130ED08C2F0E94F409C0E007C0F801EC0FF11D4B
S1130EE080810E94F409CF5FCD17B8F30E94EC090A
S1130EF0DF91CF911F910F910895CF93DF931F92AC
S1130F00CDB7DEB7898341E0BE016F5F7F4F80E0DC
S1130F100E945C070F90DF91CF910895CF9381E2F7
S1130F200E947D0780E00E947D078FE70E947D0775
S1130F3082E20E947D0780E00E947D0787E00E9494
S1130F407D07C0E00BC080E1C89FB0011124645844
S1130F507E4F40E180E40E945C07CF5FC03498F389
S1130F60CF910895882314F08093730108958034F9
S1130F7010F4809374010895CF93C62F0E94B20792
S1130F808C2F0E94B707CF9108950E94C9098EEA59
S1130F900E947D0785ED0E947D0780EF0E947D07FA
S1130FA088EA0E947D078FE30E947D0783ED0E94FB
S1130FB07D0780E00E947D078DE80E947D0784E123
S1130FC00E947D0780E40E947D0780E20E947D07E5
S1130FD080E00E947D0781EA0E947D0788EC0E94E0
S1130FE07D078AED0E947D0782E10E947D0781E8EA
S1130FF00E947D078FEF0E947D0789ED0E947D0787
S113100081EF0E947D078BED0E947D0780E20E94A4
S11310107D0784EA0E947D0786EA0E947D078EE2AE
S11310200E947D078FEA0E947D0760E080E00E94B5
S1131030BC07E3E7F1E086EA828317821682158211
S11310401182108208951F93CF93DF93182FD0E05D
S11310500BC0412F6D2F8C2F0E946D06CF5F01C0F6
S1131060C0E0CC23B4F7D85FD034D0F3DF91CF9174
S11310701F91089580E00E942308089580917501CE
S1131080873A21F486EA8093750103C087EA809346
S11310907501809175010E947D0708956623E4F02F
S11310A04034D0F42230C0F4E3E7F1E09483838346
S11310B06583468350E041505109CA0199230CF4D9
S11310C00796959587959595879595958795E3E7E3
S11310D0F1E08F5F8783208708954F925F926F922C
S11310E07F928F929F92AF92BF92CF92DF92EF92B4
S11310F0FF920F931F93CF93DF93A3E7B1E05C902C
S113110011964C901197805215969C9115971796AD
S11311102C911797929F900111242F5F3F4F829F2C
S1131120A001839F500D11241396ED91FC91149707
S11311305A018FEFA81AB80AE40FF51F7490842D92
S11311408770982E642C812C5FC0662D852D0E949B
S1131150BC077501E80CF11C670181E0C81AD108CD
S113116010E041C08091760190917701FC01EE0D71
S1131170FF1D2491492D50E030E0092C02C0220FBC
S1131180331F0A94E2F7022F8820A1F0FC01EC0D32
S1131190FD1DE49188E090E0841B950BF0E002C013
S11311A0F595E7958A95E2F70E2F022B80917A0147
S11311B0C80ED11C80917B01813039F4E3E7F1E062
S11311C0618180810E947B06082BC3E7D1E069819D
S11311D0888191E0980F9883402F0E946D068F813B
S11311E0E80EF11C1F5F171508F4BCCF80917B013A
S11311F0811107C0E3E7F1E040E0618180810E9452
S11312006D0688E0680E839480917A01881608F44C
S11312109CCF242D26952695269530E08091790142
S113122090E0840D911D0197AC0112F4495F5F4F6A
S113123055954795559547955595479524173507E1
S113124009F445C08FE3861508F441C0662D852D49
S11312500E94BC07A80CB11C81E0A81AB10800E0E8
S113126029C0C3E7D1E0F98018816F2D812F0E9436
S11312707B06EB81FC81EA0DFB1D449128E030E004
S11312802919310950E002C0559547952A95E2F78E
S1131290482B9885913009F4482BC3E7D1E081E0CD
S11312A0810F88836F2D812F0E946D068F81A80E78
S11312B0B11C0F5F0715A8F280917B01811107C053
S11312C0E3E7F1E040E0618180810E946D06852DB5
S11312D0870D642D8F5F0E94BC07DF91CF911F9112
S11312E00F91FF90EF90DF90CF90BF90AF909F90C1
S11312F08F907F906F905F904F900895CF93DF937E
S1131300EC010DC0E3E7F1E09081258130E0290F85
S1131310311D2038310534F421960E946D088881EE
S11313208111F0CFDF91CF9108950F931F93CF9345
S1131330DF93CDB7DEB72C970FB6F894DEBF0FBEA0
S1131340CDBF611571058105910521F480E30E94EB
S11313506D0814C061157105810520E8920771F0CC
S11313608E010F5F1F4F2CE0F80111922A95E9F7C7
S1131370A8010E948906C8010E947E092C960FB616
S1131380F894DEBF0FBECDBFDF91CF911F910F91B7
S1131390089587B1806187B987B1806287B988B1C0
S11313A0806188B988B1806288B91092B90088E4F4
S11313B08093B80084E08093BC0008958091B900C4
S11313C0887F089584EA8093BC008091BC008823C0
S11313D0E4F70E94DE09089585ED8093BC008091B6
S11313E0BC0084FDFCCF08958093BB0084E8809307
S11313F0BC008091BC008823E4F70E94DE090895B4
S11314005058BB27AA270E94180A0C94620B0E940A
S1131410540B38F00E945B0B20F039F49F3F19F411
S113142026F40C94510B0EF4E095E7FB0C944B0B53
S1131430E92F0E94730B58F3BA17620773078407E6
S1131440950720F079F4A6F50C94950B0EF4E0952D
S11314500B2EBA2FA02D0B01B90190010C01CA016A
S1131460A0011124FF27591B99F0593F50F4503E15
S113147068F11A16F040A22F232F342F4427585F07
S1131480F3CF469537952795A795F0405395C9F71F
S11314907EF41F16BA0B620B730B840BBAF09150D7
S11314A0A1F0FF0FBB1F661F771F881FC2F70EC076
S11314B0BA0F621F731F841F48F487957795679549
S11314C0B795F7959E3F08F0B0CF9395880F08F035
S11314D09927EE0F9795879508950E94810A0C9499
S11314E0620B0E945B0B58F00E94540B40F029F4ED
S11314F05F3F29F00C944B0B51110C94960B0C94F8
S1131500510B0E94730B68F39923B1F3552391F3A4
S1131510951B550BBB27AA2762177307840738F05E
S11315209F5F5F4F220F331F441FAA1FA9F335D0BB
S11315300E2E3AF0E0E832D091505040E695001C6F
S1131540CAF72BD0FE2F29D0660F771F881FBB1F29
S1131550261737074807AB07B0E809F0BB0B802D07
S1131560BF01FF2793585F4F3AF09E3F510578F033
S11315700C944B0B0C94960B5F3FE4F3983ED4F31E
S1131580869577956795B795F7959F5FC9F7880F07
S1131590911D9695879597F90895E1E0660F771F59
S11315A0881FBB1F621773078407BA0720F0621BEA
S11315B0730B840BBA0BEE1F88F7E09508950E9415
S11315C07B0B88F09F5798F0B92F9927B751B0F04B
S11315D0E1F0660F771F881F991F1AF0BA95C9F7B3
S11315E014C0B13091F00E94950BB1E008950C94B1
S11315F0950B672F782F8827B85F39F0B93FCCF364
S1131600869577956795B395D9F73EF4909580952F
S1131610709561957F4F8F4F9F4F0895E89409C04F
S113162097FB3EF490958095709561957F4F8F4F11
S11316309F4F9923A9F0F92F96E9BB279395F69527
S1131640879577956795B795F111F8CFFAF4BB0FA5
S113165011F460FF1BC06F5F7F4F8F4F9F4F16C009
S1131660882311F096E911C0772321F09EE8872F93
S1131670762F05C0662371F096E8862F70E060E04F
S11316802AF09A95660F771F881FDAF7880F9695C8
S1131690879597F9089597F99F6780E870E060E06F
S11316A008959FEF80EC089500240A9416161706F7
S11316B018060906089500240A941216130614063F
S11316C005060895092E0394000C11F4882352F0A2
S11316D0BB0F40F4BF2B11F460FF04C06F5F7F4F5A
S11316E08F4F9F4F089557FD9058440F551F59F041
S11316F05F3F71F04795880F97FB991F61F09F3FFB
S113170079F087950895121613061406551FF2CF23
S11317104695F1DF08C0161617061806991FF1CF73
S113172086957105610508940895E894BB2766279A
S11317307727CB0197F908950E94AF0B0C94620BA5
S11317400E94540B38F00E945B0B20F0952311F09B
S11317500C944B0B0C94510B11240C94960B0E947B
S1131760730B70F3959FC1F3950F50E0551F629F63
S1131770F001729FBB27F00DB11D639FAA27F00DE6
S1131780B11DAA1F649F6627B00DA11D661F829F0D
S11317902227B00DA11D621F739FB00DA11D621FF2
S11317A0839FA00D611D221F749F3327A00D611D0F
S11317B0231F849F600D211D822F762F6A2F1124F1
S11317C09F5750409AF0F1F088234AF0EE0FFF1F24
S11317D0BB1F661F771F881F91505040A9F79E3F7B
S11317E0510580F00C944B0B0C94960B5F3FE4F383
S11317F0983ED4F3869577956795B795F795E795D1
S11318009F5FC1F7FE2B880F911D9695879597F9D9
S11318100895DB018F939F930E944A0CBF91AF916F
S1131820A29F800D911DA39F900DB29F900D112436
S11318300895A1E21A2EAA1BBB1BFD010DC0AA1F0D
S1131840BB1FEE1FFF1FA217B307E407F50720F025
S1131850A21BB30BE40BF50B661F771F881F991FA0
S11318601A9469F760957095809590959B01AC01E9
S1131870BD01CF010895A29FB001B39FC001A39FF2
S1131880700D811D1124911DB29F700D811D1124B5
S1131890911D08950E943B0CA59F900DB49F900D3F
S11318A0A49F800D911D11240895F999FECF92BD36
S11318B081BDF89A992780B50895A6E1B0E044E087
S11318C050E00C94800C262FF999FECF1FBA92BDDC
S11318D081BD20BD0FB6F894FA9AF99A0FBE01960D
S11318E00895242F0E94640C252F0E94640C0C94EC
S11318F0790C0E94630C272F0C94640CDC01CB013F
S1131900FC01F999FECF06C0F2BDE1BDF89A31960B
S113191000B40D9241505040B8F70895F894FFCFA9
S113192041004C415344204361720072706D005376
S11319306F6E61722028636D293A2000442E205076
S11319406E65752028636D293A20006B6D006B4E1F
S10F195000250043005000440052000039
S9030000FC
